{
  "_format": "hh-sol-artifact-1",
  "contractName": "Notans",
  "sourceName": "contracts/Notans.sol",
  "abi": [
    {
      "anonymous": false,
      "inputs": [
        {
          "indexed": false,
          "internalType": "string",
          "name": "name",
          "type": "string"
        },
        {
          "indexed": true,
          "internalType": "string",
          "name": "username",
          "type": "string"
        },
        {
          "indexed": true,
          "internalType": "address",
          "name": "recipient_address",
          "type": "address"
        },
        {
          "indexed": false,
          "internalType": "string",
          "name": "profile_uri",
          "type": "string"
        }
      ],
      "name": "UserdataSaved",
      "type": "event"
    },
    {
      "inputs": [
        {
          "internalType": "bytes32",
          "name": "symbol",
          "type": "bytes32"
        },
        {
          "internalType": "address",
          "name": "tokenAddress",
          "type": "address"
        }
      ],
      "name": "addToken",
      "outputs": [],
      "stateMutability": "nonpayable",
      "type": "function"
    },
    {
      "inputs": [
        {
          "internalType": "string",
          "name": "_name",
          "type": "string"
        },
        {
          "internalType": "string",
          "name": "_username",
          "type": "string"
        },
        {
          "internalType": "string",
          "name": "_profile_uri",
          "type": "string"
        }
      ],
      "name": "create_user",
      "outputs": [],
      "stateMutability": "nonpayable",
      "type": "function"
    },
    {
      "inputs": [
        {
          "internalType": "string",
          "name": "_username",
          "type": "string"
        }
      ],
      "name": "get_user_address",
      "outputs": [
        {
          "components": [
            {
              "internalType": "string",
              "name": "name",
              "type": "string"
            },
            {
              "internalType": "string",
              "name": "username",
              "type": "string"
            },
            {
              "internalType": "address payable",
              "name": "recipient_address",
              "type": "address"
            },
            {
              "internalType": "string",
              "name": "profile_uri",
              "type": "string"
            }
          ],
          "internalType": "struct Notans.Userdata",
          "name": "",
          "type": "tuple"
        }
      ],
      "stateMutability": "view",
      "type": "function"
    },
    {
      "inputs": [
        {
          "internalType": "bytes32",
          "name": "symbol",
          "type": "bytes32"
        },
        {
          "internalType": "uint256",
          "name": "amount",
          "type": "uint256"
        },
        {
          "internalType": "address",
          "name": "_to",
          "type": "address"
        }
      ],
      "name": "send_token",
      "outputs": [],
      "stateMutability": "nonpayable",
      "type": "function"
    },
    {
      "inputs": [
        {
          "internalType": "bytes32",
          "name": "",
          "type": "bytes32"
        }
      ],
      "name": "tokens",
      "outputs": [
        {
          "internalType": "address",
          "name": "",
          "type": "address"
        }
      ],
      "stateMutability": "view",
      "type": "function"
    },
    {
      "inputs": [
        {
          "internalType": "string",
          "name": "",
          "type": "string"
        }
      ],
      "name": "usermapping",
      "outputs": [
        {
          "internalType": "string",
          "name": "name",
          "type": "string"
        },
        {
          "internalType": "string",
          "name": "username",
          "type": "string"
        },
        {
          "internalType": "address payable",
          "name": "recipient_address",
          "type": "address"
        },
        {
          "internalType": "string",
          "name": "profile_uri",
          "type": "string"
        }
      ],
      "stateMutability": "view",
      "type": "function"
    }
  ],
  "bytecode": "0x608060405234801561001057600080fd5b50610c93806100206000396000f3fe608060405234801561001057600080fd5b50600436106100725760003560e01c8063904194a311610050578063904194a3146100cb5780639776aacf1461010c578063e850f37b1461015557600080fd5b80630bbbe96a146100775780632cb07402146100a35780637fb0a9f6146100b8575b600080fd5b61008a61008536600461093e565b610175565b60405161009a94939291906109d3565b60405180910390f35b6100b66100b1366004610a26565b61034f565b005b6100b66100c6366004610aca565b610474565b6100f46100d9366004610aff565b6001602052600090815260409020546001600160a01b031681565b6040516001600160a01b03909116815260200161009a565b6100b661011a366004610b18565b600091825260016020526040909120805473ffffffffffffffffffffffffffffffffffffffff19166001600160a01b03909216919091179055565b61016861016336600461093e565b6105d1565b60405161009a9190610b44565b805160208183018101805160008252928201919093012091528054819061019b90610bb8565b80601f01602080910402602001604051908101604052809291908181526020018280546101c790610bb8565b80156102145780601f106101e957610100808354040283529160200191610214565b820191906000526020600020905b8154815290600101906020018083116101f757829003601f168201915b50505050509080600101805461022990610bb8565b80601f016020809104026020016040519081016040528092919081815260200182805461025590610bb8565b80156102a25780601f10610277576101008083540402835291602001916102a2565b820191906000526020600020905b81548152906001019060200180831161028557829003601f168201915b505050600284015460038501805494956001600160a01b039092169491935091506102cc90610bb8565b80601f01602080910402602001604051908101604052809291908181526020018280546102f890610bb8565b80156103455780601f1061031a57610100808354040283529160200191610345565b820191906000526020600020905b81548152906001019060200180831161032857829003601f168201915b5050505050905084565b6040518060800160405280848152602001838152602001336001600160a01b03168152602001828152506000836040516103899190610bf3565b908152602001604051809103902060008201518160000190805190602001906103b3929190610802565b5060208281015180516103cc9260018501920190610802565b50604082015160028201805473ffffffffffffffffffffffffffffffffffffffff19166001600160a01b039092169190911790556060820151805161041b916003840191602090910190610802565b505060405133915061042e908490610bf3565b60405180910390207f339efe61aef0018bc06cfd45bb7411b255a7b1ec7a18bdb3488df5c8a7d9da448584604051610467929190610c0f565b60405180910390a3505050565b600083815260016020526040908190205490517f095ea7b3000000000000000000000000000000000000000000000000000000008152336004820152602481018490526001600160a01b039091169063095ea7b390604401602060405180830381600087803b1580156104e657600080fd5b505af11580156104fa573d6000803e3d6000fd5b505050506040513d601f19601f8201168201806040525081019061051e9190610c34565b50600083815260016020526040908190205490517fa9059cbb0000000000000000000000000000000000000000000000000000000081526001600160a01b038381166004830152602482018590529091169063a9059cbb90604401602060405180830381600087803b15801561059357600080fd5b505af11580156105a7573d6000803e3d6000fd5b505050506040513d601f19601f820116820180604052508101906105cb9190610c34565b50505050565b6106056040518060800160405280606081526020016060815260200160006001600160a01b03168152602001606081525090565b6000826040516106159190610bf3565b908152602001604051809103902060405180608001604052908160008201805461063e90610bb8565b80601f016020809104026020016040519081016040528092919081815260200182805461066a90610bb8565b80156106b75780601f1061068c576101008083540402835291602001916106b7565b820191906000526020600020905b81548152906001019060200180831161069a57829003601f168201915b505050505081526020016001820180546106d090610bb8565b80601f01602080910402602001604051908101604052809291908181526020018280546106fc90610bb8565b80156107495780601f1061071e57610100808354040283529160200191610749565b820191906000526020600020905b81548152906001019060200180831161072c57829003601f168201915b505050918352505060028201546001600160a01b0316602082015260038201805460409092019161077990610bb8565b80601f01602080910402602001604051908101604052809291908181526020018280546107a590610bb8565b80156107f25780601f106107c7576101008083540402835291602001916107f2565b820191906000526020600020905b8154815290600101906020018083116107d557829003601f168201915b5050505050815250509050919050565b82805461080e90610bb8565b90600052602060002090601f0160209004810192826108305760008555610876565b82601f1061084957805160ff1916838001178555610876565b82800160010185558215610876579182015b8281111561087657825182559160200191906001019061085b565b50610882929150610886565b5090565b5b808211156108825760008155600101610887565b634e487b7160e01b600052604160045260246000fd5b600082601f8301126108c257600080fd5b813567ffffffffffffffff808211156108dd576108dd61089b565b604051601f8301601f19908116603f011681019082821181831017156109055761090561089b565b8160405283815286602085880101111561091e57600080fd5b836020870160208301376000602085830101528094505050505092915050565b60006020828403121561095057600080fd5b813567ffffffffffffffff81111561096757600080fd5b610973848285016108b1565b949350505050565b60005b8381101561099657818101518382015260200161097e565b838111156105cb5750506000910152565b600081518084526109bf81602086016020860161097b565b601f01601f19169290920160200192915050565b6080815260006109e660808301876109a7565b82810360208401526109f881876109a7565b90506001600160a01b03851660408401528281036060840152610a1b81856109a7565b979650505050505050565b600080600060608486031215610a3b57600080fd5b833567ffffffffffffffff80821115610a5357600080fd5b610a5f878388016108b1565b94506020860135915080821115610a7557600080fd5b610a81878388016108b1565b93506040860135915080821115610a9757600080fd5b50610aa4868287016108b1565b9150509250925092565b80356001600160a01b0381168114610ac557600080fd5b919050565b600080600060608486031215610adf57600080fd5b8335925060208401359150610af660408501610aae565b90509250925092565b600060208284031215610b1157600080fd5b5035919050565b60008060408385031215610b2b57600080fd5b82359150610b3b60208401610aae565b90509250929050565b602081526000825160806020840152610b6060a08401826109a7565b90506020840151601f1980858403016040860152610b7e83836109a7565b92506001600160a01b036040870151166060860152606086015191508085840301608086015250610baf82826109a7565b95945050505050565b600181811c90821680610bcc57607f821691505b60208210811415610bed57634e487b7160e01b600052602260045260246000fd5b50919050565b60008251610c0581846020870161097b565b9190910192915050565b604081526000610c2260408301856109a7565b8281036020840152610baf81856109a7565b600060208284031215610c4657600080fd5b81518015158114610c5657600080fd5b939250505056fea26469706673582212205241714f5bd202c2fa128cc91b251cd5ab26a0528e40ba4574b538b84e3087e564736f6c63430008090033",
  "linkReferences": {},
  "deployedLinkReferences": {}
}