{
  "_format": "hh-sol-artifact-1",
  "contractName": "Notans",
  "sourceName": "contracts/Notans.sol",
  "abi": [
    {
      "inputs": [],
      "stateMutability": "nonpayable",
      "type": "constructor"
    },
    {
      "anonymous": false,
      "inputs": [
        {
          "indexed": false,
          "internalType": "string",
          "name": "name",
          "type": "string"
        },
        {
          "indexed": true,
          "internalType": "string",
          "name": "username",
          "type": "string"
        },
        {
          "indexed": true,
          "internalType": "address",
          "name": "recipient_address",
          "type": "address"
        },
        {
          "indexed": false,
          "internalType": "string",
          "name": "profile_uri",
          "type": "string"
        }
      ],
      "name": "UserdataSaved",
      "type": "event"
    },
    {
      "inputs": [
        {
          "internalType": "string",
          "name": "_name",
          "type": "string"
        },
        {
          "internalType": "string",
          "name": "_username",
          "type": "string"
        },
        {
          "internalType": "string",
          "name": "_profile_uri",
          "type": "string"
        }
      ],
      "name": "create_user",
      "outputs": [],
      "stateMutability": "nonpayable",
      "type": "function"
    },
    {
      "inputs": [
        {
          "internalType": "string",
          "name": "_username",
          "type": "string"
        }
      ],
      "name": "get_user_address",
      "outputs": [
        {
          "components": [
            {
              "internalType": "string",
              "name": "name",
              "type": "string"
            },
            {
              "internalType": "string",
              "name": "username",
              "type": "string"
            },
            {
              "internalType": "address payable",
              "name": "recipient_address",
              "type": "address"
            },
            {
              "internalType": "string",
              "name": "profile_uri",
              "type": "string"
            }
          ],
          "internalType": "struct Notans.Userdata",
          "name": "",
          "type": "tuple"
        }
      ],
      "stateMutability": "view",
      "type": "function"
    }
  ],
  "bytecode": "0x608060405234801561001057600080fd5b5061075d806100206000396000f3fe608060405234801561001057600080fd5b50600436106100365760003560e01c80632cb074021461003b578063e850f37b14610050575b600080fd5b61004e610049366004610516565b610079565b005b61006361005e36600461059e565b6101a9565b6040516100709190610637565b60405180910390f35b6040518060800160405280848152602001838152602001336001600160a01b03168152602001828152506000836040516100b391906106ab565b908152602001604051809103902060008201518160000190805190602001906100dd9291906103da565b5060208281015180516100f692600185019201906103da565b5060408201516002820180547fffffffffffffffffffffffff0000000000000000000000000000000000000000166001600160a01b03909216919091179055606082015180516101509160038401916020909101906103da565b50506040513391506101639084906106ab565b60405180910390207f339efe61aef0018bc06cfd45bb7411b255a7b1ec7a18bdb3488df5c8a7d9da44858460405161019c9291906106c7565b60405180910390a3505050565b6101dd6040518060800160405280606081526020016060815260200160006001600160a01b03168152602001606081525090565b6000826040516101ed91906106ab565b9081526020016040518091039020604051806080016040529081600082018054610216906106ec565b80601f0160208091040260200160405190810160405280929190818152602001828054610242906106ec565b801561028f5780601f106102645761010080835404028352916020019161028f565b820191906000526020600020905b81548152906001019060200180831161027257829003601f168201915b505050505081526020016001820180546102a8906106ec565b80601f01602080910402602001604051908101604052809291908181526020018280546102d4906106ec565b80156103215780601f106102f657610100808354040283529160200191610321565b820191906000526020600020905b81548152906001019060200180831161030457829003601f168201915b505050918352505060028201546001600160a01b03166020820152600382018054604090920191610351906106ec565b80601f016020809104026020016040519081016040528092919081815260200182805461037d906106ec565b80156103ca5780601f1061039f576101008083540402835291602001916103ca565b820191906000526020600020905b8154815290600101906020018083116103ad57829003601f168201915b5050505050815250509050919050565b8280546103e6906106ec565b90600052602060002090601f016020900481019282610408576000855561044e565b82601f1061042157805160ff191683800117855561044e565b8280016001018555821561044e579182015b8281111561044e578251825591602001919060010190610433565b5061045a92915061045e565b5090565b5b8082111561045a576000815560010161045f565b634e487b7160e01b600052604160045260246000fd5b600082601f83011261049a57600080fd5b813567ffffffffffffffff808211156104b5576104b5610473565b604051601f8301601f19908116603f011681019082821181831017156104dd576104dd610473565b816040528381528660208588010111156104f657600080fd5b836020870160208301376000602085830101528094505050505092915050565b60008060006060848603121561052b57600080fd5b833567ffffffffffffffff8082111561054357600080fd5b61054f87838801610489565b9450602086013591508082111561056557600080fd5b61057187838801610489565b9350604086013591508082111561058757600080fd5b5061059486828701610489565b9150509250925092565b6000602082840312156105b057600080fd5b813567ffffffffffffffff8111156105c757600080fd5b6105d384828501610489565b949350505050565b60005b838110156105f65781810151838201526020016105de565b83811115610605576000848401525b50505050565b600081518084526106238160208601602086016105db565b601f01601f19169290920160200192915050565b60208152600082516080602084015261065360a084018261060b565b90506020840151601f1980858403016040860152610671838361060b565b92506001600160a01b0360408701511660608601526060860151915080858403016080860152506106a2828261060b565b95945050505050565b600082516106bd8184602087016105db565b9190910192915050565b6040815260006106da604083018561060b565b82810360208401526106a2818561060b565b600181811c9082168061070057607f821691505b6020821081141561072157634e487b7160e01b600052602260045260246000fd5b5091905056fea26469706673582212203252490a46fb5bc56058727403d003e8b8248f6d3dcf84ec5657e845bcea818064736f6c63430008090033",
  "linkReferences": {},
  "deployedLinkReferences": {}
}