{
  "_format": "hh-sol-artifact-1",
  "contractName": "Notans",
  "sourceName": "contracts/Notans.sol",
  "abi": [
    {
      "inputs": [],
      "stateMutability": "nonpayable",
      "type": "constructor"
    },
    {
      "anonymous": false,
      "inputs": [
        {
          "indexed": true,
          "internalType": "string",
          "name": "username",
          "type": "string"
        },
        {
          "indexed": true,
          "internalType": "address",
          "name": "recipient_address",
          "type": "address"
        },
        {
          "indexed": false,
          "internalType": "string",
          "name": "profile_uri",
          "type": "string"
        }
      ],
      "name": "UserdataSaved",
      "type": "event"
    },
    {
      "inputs": [
        {
          "internalType": "string",
          "name": "_username",
          "type": "string"
        },
        {
          "internalType": "string",
          "name": "_profile_uri",
          "type": "string"
        }
      ],
      "name": "create_user",
      "outputs": [],
      "stateMutability": "nonpayable",
      "type": "function"
    },
    {
      "inputs": [
        {
          "internalType": "string",
          "name": "_username",
          "type": "string"
        }
      ],
      "name": "get_user_address",
      "outputs": [
        {
          "components": [
            {
              "internalType": "string",
              "name": "username",
              "type": "string"
            },
            {
              "internalType": "address payable",
              "name": "recipient_address",
              "type": "address"
            },
            {
              "internalType": "string",
              "name": "profile_uri",
              "type": "string"
            }
          ],
          "internalType": "struct Notans.Userdata",
          "name": "",
          "type": "tuple"
        }
      ],
      "stateMutability": "view",
      "type": "function"
    }
  ],
  "bytecode": "0x608060405234801561001057600080fd5b5061065c806100206000396000f3fe608060405234801561001057600080fd5b50600436106100365760003560e01c80632a2a69fd1461003b578063e850f37b14610050575b600080fd5b61004e610049366004610456565b610079565b005b61006361005e3660046104ba565b610186565b6040516100709190610553565b60405180910390f35b6040805160608101825283815233602082015280820183905290516000906100a29085906105b5565b908152602001604051809103902060008201518160000190805190602001906100cc92919061031a565b506020828101516001830180547fffffffffffffffffffffffff00000000000000000000000000000000000000001673ffffffffffffffffffffffffffffffffffffffff90921691909117905560408301518051610130926002850192019061031a565b50506040513391506101439084906105b5565b60405180910390207ff90a8e99fe49654f95826af2b3344833cc4330c36f4fd32a59af1bf23ff79d058360405161017a91906105d1565b60405180910390a35050565b604080516060808201835280825260006020830152918101919091526000826040516101b291906105b5565b90815260200160405180910390206040518060600160405290816000820180546101db906105eb565b80601f0160208091040260200160405190810160405280929190818152602001828054610207906105eb565b80156102545780601f1061022957610100808354040283529160200191610254565b820191906000526020600020905b81548152906001019060200180831161023757829003601f168201915b5050509183525050600182015473ffffffffffffffffffffffffffffffffffffffff166020820152600282018054604090920191610291906105eb565b80601f01602080910402602001604051908101604052809291908181526020018280546102bd906105eb565b801561030a5780601f106102df5761010080835404028352916020019161030a565b820191906000526020600020905b8154815290600101906020018083116102ed57829003601f168201915b5050505050815250509050919050565b828054610326906105eb565b90600052602060002090601f016020900481019282610348576000855561038e565b82601f1061036157805160ff191683800117855561038e565b8280016001018555821561038e579182015b8281111561038e578251825591602001919060010190610373565b5061039a92915061039e565b5090565b5b8082111561039a576000815560010161039f565b634e487b7160e01b600052604160045260246000fd5b600082601f8301126103da57600080fd5b813567ffffffffffffffff808211156103f5576103f56103b3565b604051601f8301601f19908116603f0116810190828211818310171561041d5761041d6103b3565b8160405283815286602085880101111561043657600080fd5b836020870160208301376000602085830101528094505050505092915050565b6000806040838503121561046957600080fd5b823567ffffffffffffffff8082111561048157600080fd5b61048d868387016103c9565b935060208501359150808211156104a357600080fd5b506104b0858286016103c9565b9150509250929050565b6000602082840312156104cc57600080fd5b813567ffffffffffffffff8111156104e357600080fd5b6104ef848285016103c9565b949350505050565b60005b838110156105125781810151838201526020016104fa565b83811115610521576000848401525b50505050565b6000815180845261053f8160208601602086016104f7565b601f01601f19169290920160200192915050565b60208152600082516060602084015261056f6080840182610527565b905073ffffffffffffffffffffffffffffffffffffffff60208501511660408401526040840151601f198483030160608501526105ac8282610527565b95945050505050565b600082516105c78184602087016104f7565b9190910192915050565b6020815260006105e46020830184610527565b9392505050565b600181811c908216806105ff57607f821691505b6020821081141561062057634e487b7160e01b600052602260045260246000fd5b5091905056fea26469706673582212208f8dbd42d52c073d0a76a1bf099215e9d731985eeba2a7585c57402a51c47e6464736f6c63430008090033",
  "linkReferences": {},
  "deployedLinkReferences": {}
}